S0180000456E76696F5F6D65646963696F6E65732E737265638C
S11300000C9434000C9446000C9446000C94460066
S11300100C9446000C9446000C9446000C94840006
S11300200C9446000C9446000C9446000C94460034
S11300300C9446000C9446000C9446000C94460024
S11300400C9446000C9446000C9446000C94460014
S11300500C9446000C9446000C9446000C94460004
S11300600C9446000C94460011241FBECFEFD8E038
S1130070DEBFCDBF21E0A0E0B1E001C01D92AD33F1
S1130080B207E1F70E94BE000C948D060C940000A8
S113009085E480937C00EEE7F0E0808180628083D9
S11300A087E880937A000895EAE7F0E0808180642D
S11300B0808380917A0086FDFCCF809178009091B6
S11300C0790008959093C5008093C40088E08093DC
S11300D0C10086E08093C20008959091C00095FF0E
S11300E0FCCF8093C6000895CF93811524E0920736
S11300F010F08FEF93E0C92FC3700E946D008C2F16
S11301000E946D00CF9108951F920F920FB60F9227
S113011011242F938F939F93809103019091040155
S113012001969093040180930301809103019091BF
S113013004018137924031F49091020181E0891BDE
S1130140809302018091030190910401823E9440C6
S113015051F49091010181E0891B80930101109277
S113016004011092030181E0809300019F918F911B
S11301702F910F900FBE0F901F9018958AE090E07A
S11301800E9462000E944800109264000E9448008D
S11301900E94A4036FEF80E094E00E94FD0310929C
S11301A02101109222011092230110922401109235
S11301B01101109212011092130110921401109265
S11301C0090110920A0110920B0110920C0180E0B7
S11301D090E0A0E8BFE38093350190933601A093AB
S11301E03701B09338011092290110922A0110921C
S11301F02B0110922C011092190110921A011092E5
S11302001B0110921C0110923101109232011092C4
S113021033011092340110920501109206011092DC
S113022007011092080110922D0110922E011092D4
S11302302F011092300110921D0110921E01109294
S11302401F01109220011092390110923A0110926C
S11302503B0110923C01109215011092160110926C
S11302601701109218011092250110922601109284
S11302702701109228017894809100018823E1F3EA
S11302801092000180910201813069F480E090E0D5
S1130290A0E8B0E48093350190933601A093370130
S11302A0B09338010CC080E090E0A0E8BFE38093F5
S11302B0350190933601A0933701B09338018091B2
S11302C0190190911A01A0911B01B0911C01809316
S11302D0290190932A01A0932B01B0932C018091C2
S11302E0310190913201A0913301B0913401809396
S11302F0190190931A01A0931B01B0931C018091E2
S1130300350190913601A0913701B0913801809365
S1130310310190933201A0933301B0933401809161
S1130320110190911201A0911301B09114018093D5
S1130330210190932201A0932301B0932401809181
S1130340090190910A01A0910B01B0910C018093D5
S1130350110190931201A0931301B09314016091C1
S113036011017091120180911301909114012CE8F4
S113037033E64EEE5FE30E9420066B017C01609140
S1130380210170912201809123019091240123E89D
S11303903FEA4DE55FE30E9420069B01AC01C701E3
S11303A0B6010E9456046B017C0160913101709189
S11303B03201809133019091340122EB3BE746E90D
S11303C05EE30E9420069B01AC01C701B6010E94B6
S11303D057046B017C016091190170911A0180919D
S11303E01B0190911C012FEC37EB4EE05FE30E9460
S11303F020069B01AC01C701B6010E9456046B01A3
S11304007C016091290170912A0180912B019091C6
S11304102C0120E331EC48E85EE30E9420069B01B6
S1130420AC01C701B6010E9457046093090170939F
S11304300A0180930B0190930C0160910901709162
S11304400A0180910B0190910C0120E030E040EA18
S113045050E40E941B0618166CF480E090E0A0EAB9
S1130460B0E48093090190930A01A0930B01B09327
S11304700C0117C06091090170910A0180910B0170
S113048090910C0120E030E0A9010E94C30488236C
S113049044F41092090110920A0110920B01109277
S11304A00C010E945400BC0180E090E00E946905A8
S11304B060930D0170930E0180930F0190931001CE
S11304C060910D0170910E0180910F0190911001C6
S11304D00E943A05CB010E94740060910D01709155
S11304E00E0180910F019091100120E030E040EA6C
S11304F050E40E94200620E030EC4FE754E40E94D0
S1130500C80460930D0170930E0180930F019093C2
S113051010018091150190911601A0911701B091DD
S113052018018093390190933A01A0933B01B09351
S11305303C018091250190912601A0912701B09161
S113054028018093150190931601A0931701B0938D
S113055018016091090170910A0180910B01909139
S11305600C0120910D0130910E0140910F01509129
S113057010010E9456046093250170932601809314
S113058027019093280180912D0190912E01A09133
S11305902F01B09130018093050190930601A0933F
S11305A00701B093080180911D0190911E01A09153
S11305B01F01B091200180932D0190932E01A093EF
S11305C02F01B093300160912D0170912E01809123
S11305D02F019091300123E93AE341EE5FE30E9459
S11305E020066B017C0160910501709106018091E8
S11305F007019091080125E235E742E45FE30E9498
S113060020069B01AC01C701B6010E9456046B0190
S11306107C016091250170912601809127019091C0
S1130620280120E635EE40E150E40E9420069B01BB
S1130630AC01C701B6010E9457046B017C016091B3
S113064015017091160180911701909118012AEA01
S113065031EF46E850E40E9420069B01AC01C7013B
S1130660B6010E9456046B017C01609139017091BE
S11306703A0180913B0190913C012CE032E04BEF38
S11306805FE30E9420069B01AC01C701B6010E94F2
S1130690570460931D0170931E0180931F01909372
S11306A0200160911D0170911E0180911F019091A4
S11306B0200120E030E0A9010E94C304882344F40F
S11306C010921D0110921E0110921F011092200120
S11306D060911D0170911E0180911F019091200174
S11306E020E030E040EA50E40E941B06181664F44F
S11306F080E090E0A0EAB0E480931D0190931E0195
S1130700A0931F01B093200180910101882389F0F7
S113071060911D0170911E0180911F019091200133
S113072020E030E040E05FE30E9457040E94C203EF
S1130730A3CD60911D0170911E0180911F019091C4
S113074020010E94C20398CD84B1826084B9A0E8DC
S1130750B0E082E08C93E1E8F0E088E180838C9162
S113076080688C938FE79EE3909387008093860044
S113077080E49FE190938900809388008081816068
S113078080830895CF92DF92EF92FF926B017C01F8
S113079020E030E0A9010E94C30488231CF4C12C8A
S11307A0D12C760120E030E040EA50E4C701B601E4
S11307B00E941B06181644F40F2EC12CD12CF0EA0B
S11307C0EF2EF0E4FF2EF02D20E030E040EA50E47C
S11307D0C701B6010E94C80420E03CEF49E756E493
S11307E00E9420060E943A05709389006093880055
S11307F0FF90EF90DF90CF90089522E02093B00017
S1130800E1EBF0E010822081287F20838034910581
S113081041F148F488309105C1F080329105D9F056
S11308200197B9F50CC0811521E0920731F18115CA
S113083024E0920741F18038910559F518C0E1EBA5
S1130840F0E080818160808329C0E1EBF0E0808169
S11308508260808323C0E1EBF0E080818360808349
S11308601DC0E1EBF0E080818460808317C0E1EB80
S1130870F0E080818560808311C0E1EBF0E080814D
S1130880866080830BC0E1EBF0E080818760808329
S113089005C0E1EBF0E0808184608083E0E7F0E074
S11308A08081826080836093B30008955058BB2791
S11308B0AA270E946E040C94E1050E94D30538F027
S11308C00E94DA0520F039F49F3F19F426F40C94C1
S11308D0D0050EF4E095E7FB0C94CA05E92F0E94BD
S11308E0F20558F3BA17620773078407950720F0D7
S11308F079F4A6F50C9414060EF4E0950B2EBA2F99
S1130900A02D0B01B90190010C01CA01A001112411
S1130910FF27591B99F0593F50F4503E68F11A16BD
S1130920F040A22F232F342F4427585FF3CF46954E
S113093037952795A795F0405395C9F77EF41F1670
S1130940BA0B620B730B840BBAF09150A1F0FF0F3A
S1130950BB1F661F771F881FC2F70EC0BA0F621F26
S1130960731F841F48F4879577956795B795F79516
S11309709E3F08F0B0CF9395880F08F09927EE0FAB
S11309809795879508950E94A60508F481E0089537
S11309900E94DC040C94E1050E94DA0558F00E94E0
S11309A0D30540F029F45F3F29F00C94CA05511196
S11309B00C9415060C94D0050E94F20568F3992353
S11309C0B1F3552391F3951B550BBB27AA27621747
S11309D07307840738F09F5F5F4F220F331F441F54
S11309E0AA1FA9F335D00E2E3AF0E0E832D0915088
S11309F05040E695001CCAF72BD0FE2F29D0660F75
S1130A00771F881FBB1F261737074807AB07B0E8B7
S1130A1009F0BB0B802DBF01FF2793585F4F3AF0BD
S1130A209E3F510578F00C94CA050C9415065F3F5F
S1130A30E4F3983ED4F3869577956795B795F79543
S1130A409F5FC9F7880F911D9695879597F908952B
S1130A50E1E0660F771F881FBB1F621773078407C7
S1130A60BA0720F0621B730B840BBA0BEE1F88F7D6
S1130A70E09508950E94FA0588F09F5798F0B92FE1
S1130A809927B751B0F0E1F0660F771F881F991FBF
S1130A901AF0BA95C9F714C0B13091F00E94140647
S1130AA0B1E008950C941406672F782F8827B85F57
S1130AB039F0B93FCCF3869577956795B395D9F717
S1130AC03EF490958095709561957F4F8F4F9F4F21
S1130AD00895E89409C097FB3EF49095809570952D
S1130AE061957F4F8F4F9F4F9923A9F0F92F96E976
S1130AF0BB279395F695879577956795B795F111EB
S1130B00F8CFFAF4BB0F11F460FF1BC06F5F7F4F87
S1130B108F4F9F4F16C0882311F096E911C0772399
S1130B2021F09EE8872F762F05C0662371F096E8A2
S1130B30862F70E060E02AF09A95660F771F881F71
S1130B40DAF7880F9695879597F90895990F000815
S1130B50550FAA0BE0E8FEEF16161706E807F9078B
S1130B60C0F012161306E407F50798F0621B730B26
S1130B70840B950B39F40A2661F0232B242B252BA7
S1130B8021F408950A2609F4A140A6958FEF811D4A
S1130B90811D089597F99F6780E870E060E00895EB
S1130BA09FEF80EC089500240A9416161706180681
S1130BB00906089500240A9412161306140605065D
S1130BC00895092E0394000C11F4882352F0BB0FEE
S1130BD040F4BF2B11F460FF04C06F5F7F4F8F4F51
S1130BE09F4F089557FD9058440F551F59F05F3F8C
S1130BF071F04795880F97FB991F61F09F3F79F03B
S1130C0087950895121613061406551FF2CF4695BC
S1130C10F1DF08C0161617061806991FF1CF86953E
S1130C207105610508940895E894BB276627772722
S1130C30CB0197F908950E94A60508F48FEF089553
S1130C400E9433060C94E1050E94D30538F00E94FB
S1130C50DA0520F0952311F00C94CA050C94D00504
S1130C6011240C9415060E94F20570F3959FC1F3AC
S1130C70950F50E0551F629FF001729FBB27F00D46
S1130C80B11D639FAA27F00DB11DAA1F649F66279B
S1130C90B00DA11D661F829F2227B00DA11D621FEA
S1130CA0739FB00DA11D621F839FA00D611D221FA4
S1130CB0749F3327A00D611D231F849F600D211D88
S1130CC0822F762F6A2F11249F5750409AF0F1F00B
S1130CD088234AF0EE0FFF1FBB1F661F771F881F74
S1130CE091505040A9F79E3F510580F00C94CA05DD
S1130CF00C9415065F3FE4F3983ED4F386957795FC
S1130D006795B795F795E7959F5FC1F7FE2B880F19
S1110D10911D9695879597F90895F894FFCF55
S9030000FC
